:020000040800F2
:1000000000500020DD120008DB120008D9120008A1
:10001000D9120008D9120008D91200080000000007
:10002000000000000000000000000000DB120008DB
:10003000DB12000800000000DB120008DB120008E1
:10004000D9120008D9120008D9120008D9120008E4
:10005000D9120008D9120008D9120008D9120008D4
:10006000D9120008D9120008D9120008D9120008C4
:10007000D9120008D9120008D9120008D9120008B4
:10008000D9120008D9120008D9120008D9120008A4
:10009000D9120008D9120008D9120008D912000894
:1000A000D9120008D9120008D9120008D912000884
:1000B000D9120008D9120008D9120008D912000874
:1000C000D9120008D9120008D9120008D912000864
:1000D000D9120008D9120008D9120008D912000854
:1000E000D9120008D9120008D9120008D912000844
:1000F000D9120008D9120008D9120008D912000834
:10010000D9120008D9120008D9120008D912000823
:10011000D9120008D9120008D9120008D912000813
:10012000D9120008D9120008D9120008D912000803
:10013000D9120008D9120008D9120008D9120008F3
:10014000D9120008D9120008D9120008D9120008E3
:1001500037B505460024009481210322042300F0D2
:10016000FBF901217F22084B284600F0C6FA204601
:1001700001F0FCF8054801F0F1F801F003F903B0D3
:10018000BDE8304001F006B9910100089F860100EA
:10019000087881280CD14878062809D14988B1F51A
:1001A000085F05D10349012011604A221A80704777
:1001B000002070470B1500081FB500F03BF94FF405
:1001C000407000F082F9244A40F20230136843F094
:1001D0000073136000F079F940F2033000F075F914
:1001E0001E48022100224FF4805300F047F80022FD
:1001F0004FF400431A48022100F040F817484FF42A
:10020000805100F05BF916484FF4004100F056F9B8
:1002100003230093134B1449019380230293134A41
:10022000134B144800F068F91349044600F000FD30
:100230004FF4002300BF013BFCD109484FF40041BB
:1002400000F03AF905484FF4805100F035F92046A6
:1002500000F07EF9FBE700BF04000140000C014004
:100260000008014018000020EC140008FE140008EB
:100270000000002018160008510100082DE9F04187
:100280004FF6E07796469C460268436800254CFA94
:1002900005F4E4071BD5072DACB28BBF3C461646D0
:1002A0001E46A40098BFA4B24FF00F0808FA04F845
:1002B00026EA080604F102080EFA08F801FA04F426
:1002C00048EA04043443082D2CBF23462246013556
:1002D0000437102DBFB2DAD102604360BDE8F0816F
:1002E000024A136843F080731360704700100240A5
:1002F000062827D8DFE800F004090E13181D220095
:10030000114B1B689901FBD570470F4B1B681A01F5
:10031000FBD570470C4B1B689B00FBD570470A4B05
:100320001B689803FBD57047074B1B689907FBD5E3
:100330007047064B1B689A07FBD57047044B1B6838
:100340009B07FBD5704700BF001002402010024001
:100350002410024006281FD8DFE800F004060B1026
:1003600015171900FFF7BCBF0C4A136843F08063F0
:1003700011E00A4A136843F080530CE0074A1368FF
:1003800043F4803307E0054A02E0054A00E0054AED
:10039000136843F001031360704700BF0010024070
:1003A0002010024024100240034A136823F0030384
:1003B00018431060704700BF04100240034A1368DE
:1003C00023F4701343EA8040106070470410024029
:1003D000034A136823F4803343EA004010607047F7
:1003E00004100240034A136823F4404343EA803078
:1003F0001060704704100240034A136823F46053EE
:1004000043EAC0201060704704100240034A13689A
:1004100023F4E06343EA00201060704704100240B8
:10042000034A136823F0F00343EA0010106070479A
:100430000410024008B50420FFF78CFF0420FFF7EA
:1004400057FF0020FFF7B0FF0020FFF7E9FF032070
:10045000FFF7C8FF0420FFF7D9FF0020FFF7CCFF0C
:100460000F4A0120136843F48003136000F03AF848
:100470000A20FFF7A3FF0020FFF7AAFFFFF730FFD6
:100480000020FFF735FF0220FFF78EFF054B064ADD
:1004900006491360064A1160064A136008BD00BF92
:1004A00004100240006CDC020C00002000366E01DB
:1004B0001000002014000020016170470904016150
:1004C00070470368194301607047430903F1804393
:1004D00003F50433196800F01F00012282400A432B
:1004E0001A607047034A136823F00703184310602B
:1004F000704700BF002002402DE9F0411E4603680E
:100500000546884617469847069BC0F8D850C360F2
:10051000079BC0F800800361BDF8203047608382EC
:10052000084B8660C366084B8366084B436600230E
:10053000C0F8C430C0F8C830C0F8CC30C0F8D030F3
:10054000BDE8F081210700087B07000801080008CA
:10055000D0F8D8305B6A184710B5D0F8D840A468F6
:10056000A446BDE81040604737B50446002503683F
:100570008575C575DB7929462A460095FFF7ECFF9E
:10058000D4F8D83020465B6829469847E3691BB108
:1005900003B0BDE83040184703B030BD10B5D0F807
:1005A000D840E469A446BDE81040604710B5D0F8D3
:1005B000D840246AA446BDE810406047D0F8D8303F
:1005C0001B691847D0F8D8309B69184710B5044606
:1005D00000210122FFF7F2FF002384F82C3010BD28
:1005E00038B50368828FC58EDB79AD1A9D42A8BFEE
:1005F0001D46836BADB21A4400212B460446FFF71B
:10060000D5FFA84205D02046FFF7E0FF4FF0FF30AE
:1006100038BDA38F0344A38738BD38B503680446AB
:10062000DD79838F00219D42826B0FD22B46FFF72D
:10063000B5FF0223226884F82C30D379A16B0B44D8
:10064000A363D279A38F9B1AA38738BDFFF7A6FFB8
:10065000032384F82C300023A387A36338BD2DE93E
:10066000F34104460E4600F1440500F164082F688A
:1006700057B92046314604F1380204F13C0302B078
:10068000BDE8F04100F026BB697933782A790B4048
:100690009A420BD104F1400300932046314604F105
:1006A000380204F13C03B847012803D90835454511
:1006B000DDD1DEE702B0BDE8F08110B50369044684
:1006C00083638B79CA7943EA02238387FFF7C7FFE5
:1006D00070B1A18F204619B1BDE81040FFF79DBF52
:1006E0000B460A46FFF75AFF042384F82C3010BD4E
:1006F0002046BDE81040FFF769BF70B5002600EB4B
:10070000C6056C6C2CB10136042EF8D14FF0FF30C9
:1007100070BD85F8481085F849206B64204670BD8F
:1007200070B500F1300600250564294632460823DD
:100730000446FFF73BFF082804D02046BDE8704080
:10074000FFF744BFE38E1BB194F93020002A05DA8D
:1007500020463146BDE87040FFF7AFBFA28A9A42FB
:10076000EBD32269A587A2632268D2799A4234BF6B
:100770000523062384F82C3070BD90F82C3010B57A
:10078000062B044610D0072B24D0052B33D1FFF7BE
:1007900027FF002833DBA28FE38E9B1A2268D279D1
:1007A00093422CDC062310E0FFF71AFF002826DB1B
:1007B000204604F13001FFF752FF48B100210B46FB
:1007C00020460A46FFF7EAFE042384F82C3010BDC9
:1007D000204610E000210B460A46FFF7E7FE002303
:1007E00084F82C30236C1BB1204604F1300198476B
:1007F0000023236410BDBDE81040FFF7E7BE10BD25
:1008000090F82C3010B5032B044607D0042B07D0EA
:10081000022B1CD1BDE81040FFF7FFBE072313E0F9
:10082000036C13B100F13001984794F8303053B99C
:1008300094F83130052B06D1D4F8D830618E5B683E
:100840002046C9B29847002384F82C3010BDBDE87B
:100850001040FFF7BBBE1988012984BF0121198010
:100860001368C27D01201A70704730B5C57D0D2414
:100870006C4340680D3C20448D880479A5420CD21D
:1008800001241C808B88D0F809001B011B581268BA
:1008900003B11B781370012030BD002030BD1988D2
:1008A0000120022984BF02211980116800230B70E6
:1008B00012685370704719880120022984BF0221F1
:1008C0001980116800230B7012685370704738B597
:1008D00014461A882568022A84BF02221A80898851
:1008E000C9B2FFF76FFE003018BF012028702368DF
:1008F00000225A70012038BD08B589880122C9B28A
:10090000FFF75CFE012008BD08B589880022C9B246
:10091000FFF754FE012008BD10B50B786BB94C8869
:100920007F2C0AD8D0F8D830847593F8302032B1B3
:1009300049885B68C9B2984701E0002010BD0120DA
:1009400010BDF8B54B88C27D04469A420E4618D0B9
:10095000C375D0F8D830DB689847D4F8C43083B179
:1009600000236364E3646365E36504F1C00504F197
:10097000D00755F8043F13B1204671889847BD420F
:10098000F7D10120F8BD70B51D46C37D0D225A4335
:1009900043680D3A1A440C46137989888B4216D95C
:1009A000D2F809600A01B1186388097999420ED911
:1009B000B2580AB1137000E04BB9D0F8D43013B17B
:1009C000A1886288984700232B80012070BD0020F9
:1009D00070BD2DE9F04F0546488889B0C6B2000ABF
:1009E000022890461F460FD0032800F0E18001281E
:1009F00040F01A812B6813602B683A881B78934269
:100A000028BF13463B8010E12B693C88136001939B
:100A10000D235E43D5F80480019818F8065008EBC2
:100A20000603A54228BF254619462A46029300F030
:100A3000B9FC019B641B18F806602B44A4B2002289
:100A40000492029A1179BDF81020914240F2AC80D4
:100A500012010692029A0699D2F809200A44D2F8A5
:100A60000890B9F1000F14D099F800801846A045FD
:100A700028BFA0464946424600F094FC034699F838
:100A80000020C8EB0404454416444344A4B2ADB26C
:100A9000B6B200220392029AD2F80910069A1144C3
:100AA0000879BDF80C2090427BD94FF0150909FB5D
:100AB00002F9D1F80CB018461BF809800BEB090AB3
:100AC000A04528BFA0465146424600F06BFC0346B5
:100AD0001BF80920DAF80D10C8EB0404454416444D
:100AE0004344A4B2ADB2B6B2A9B1DAF81180184647
:100AF000A045A8BFA0461FFA88F8424600F052FC65
:100B00000346DAF81120C8EB040445441644434474
:100B1000A4B2ADB2B6B200220592BDF814909AF814
:100B200004204A453AD9DAF809C0C9EB09191CF87A
:100B300009800CEB090BA04528BFA0461846594672
:100B40004246CDF81CC000F02DFC0346DDF81CC069
:100B5000DBF807101CF80920C8EB040445441644D0
:100B60004344A4B2ADB2B6B2A9B1DBF80B801846CB
:100B7000A045A8BFA0461FFA88F8424600F012FC24
:100B80000346DBF80B20C8EB0404454416444344F9
:100B9000A4B2ADB2B6B2059A0132BDE7039A0132F2
:100BA00078E7049A01324BE7019B5E803D8039E093
:100BB0002C6956B90923A3700423E37023703B8882
:100BC000042B28BF04233B8028E0A868013E60B3C3
:100BD000EB689E4228DA40F209438A889A4223D180
:100BE00050F8260000F054FC01304000C0B22070E4
:100BF0003B884FEA8609984228BF18460022388071
:100C00003B885B08013B9A4208DAAB6853F809302D
:100C1000995C04EB420359800132F1E703236370CE
:100C2000C8F80040012000E0002009B0BDE8F08FC6
:100C300010B5002200F1C00454F8043F2BB101327A
:100C4000042AF9D14FF0FF3010BD00EB8200C0F84C
:100C5000C410184610BD000030B54C78092C07D8D8
:100C6000044D55F824401CB1A446BDE8304060470F
:100C7000002030BDB815000830B54C780B2C07D8D3
:100C8000044D55F824401CB1A446BDE830406047EF
:100C9000002030BDE015000810B54C78012C03D0C1
:100CA0000AD3032C04D00CE04C8854B9064C04E061
:100CB0004C8834B9054C00E0054CA446BDE8104012
:100CC0006047002010BD00BF09090008F9080008AE
:100CD000CF08000810B50C7814F0600F12D104F0A2
:100CE0001F04012C0AD005D3022C0BD1BDE8104003
:100CF000FFF7D2BFBDE81040FFF7AEBFBDE8104020
:100D0000FFF7BABF002010BD024B41F0800119600F
:100D1000704700BF4C5C00400E4A40F63F731168BC
:100D20000B4043F4004343F08003136043F60F731A
:100D300011680B4043F4004343F0800342F8043B46
:100D4000054B9A42E9D10368DB7920335B000383CA
:100D5000704700BF045C0040205C004030B5C9B95A
:100D6000354B10241B68012023F4E04323F040039B
:100D70009BB2002A0CBF20251025054218BF434016
:100D80004000013C80B2F4D143F400432A4843F0D0
:100D9000800303600B0624D501F07F01890001F177
:100DA000804101F5B8410B68102423F4E04323F09F
:100DB00040039BB20120002A0CBF202510250542CC
:100DC00018BF43404000013C80B2F4D143F40043DB
:100DD00043F080030B606ABB48F6CF730A68134088
:100DE00027E0890042B94CF68F7001F1804303F58A
:100DF000B8431C682040186001F1804101F5B841FA
:100E00000B68102423F4804323F070039BB201206D
:100E1000002A14BF4FF480554FF44055054218BFC7
:100E200043404000013C80B2F2D143F4004343F020
:100E300080030B6030BD00BF005C00400B060BD58B
:100E400001F07F01890001F1804101F5B841086896
:100E500000F03000102809E0890001F1804101F51F
:100E6000B841086800F44050B0F5805F14BF00201E
:100E70000120704701F07F01880000F1804000F5FB
:100E8000B840F0B5046804F03004302C3DD0204E5A
:100E9000C9003468A4B20C4404F1005404F5405471
:100EA000640025685C1CADB26D00641005EB840421
:100EB00005F1804704F1804407F5C04704F5C044BC
:100EC000A74204D032F8025B27F8045BF8E73268E7
:100ED000102492B211440F4A0A445200136002686F
:100EE000012122F4E04222F0400292B211F0300FD0
:100EF00018BF4A404900013C89B2F7D142F4004290
:100F000042F0800202601846F0BD0020F0BD00BF34
:100F1000505C0040023000202DE9F0418C0004F1CB
:100F2000804404F5B844206800F44050B0F5405FB8
:100F300057D02F4ECD0037682E48BFB22F443844CB
:100F400040000068C0F30900984208DA3068294B75
:100F500080B2284403445B001B68C3F30903306874
:100F60005E0880B205442448964628444000006844
:100F7000354680B2400000F1804000F5C040074691
:100F800003F0010C35B137F8048B013D2EF8028BCC
:100F9000ADB2F7E7BCF1000F03D010F8260002F85D
:100FA000160040F60F722068024042F08002226074
:100FB000124A525CC2B92268102022F4804222F008
:100FC000700292B2012111F4405F18BF4A404900FB
:100FD000013889B2F7D142F4004242F08002226027
:100FE00002E00020BDE8F0811846BDE8F08100BFB6
:100FF000505C0040063000200430002090010020AA
:10100000F8B5324B054619681C468EB216F4806F4F
:1010100008D04FF6FF321A6040230383BDE8F84042
:10102000FFF7A2BA080432D501F00F0116F0100341
:101030004FEA810209D002F1804303F5B8431B68EF
:10104000C3F3C0230133DBB20CE040F60F7002F1B2
:10105000804707F5B847D7F800E00EEA000040F4F3
:101060000040386001EB4100034405EB83035B6EF5
:1010700013B1284698470AE002F1804340F60F7208
:1010800003F5B84319680A4042F080021A6031053E
:1010900005D54FF2FF7323602B6A03B19847F20422
:1010A00005D54EF6FF7323606B6A03B19847B3050D
:1010B00005D54FF6FF532360AB6A03B19847AA6A80
:1010C000034B02B101221A60F8BD00BF445C00402E
:1010D00000900B4208B508484FF40001FFF7F1F902
:1010E000064A0749002313600B6041F80C3C4FF49B
:1010F0001C431360034808BD1C100240405C0040C4
:10110000505C0040980000202DE9F7430F466E46E2
:10111000574904460868496827F07F0803C607F066
:101120007F01880000F1804000F5B84006680A9D04
:1011300026F4E04626F07F060E43B6B2066048F677
:101140008F16076808F0FF0C3E4002AF07EB420223
:1011500032F8082CDFF824E132430260CF00B8F106
:10116000000F1AD1C9B1DEF80020268B1FFA82FCCD
:10117000404ABC44624452003E2B16601A4644D991
:1011800013F01F0F18BFA3F120026FEA82526FEA1B
:101190005242DEF800E092B23EE0DEF80020268BFC
:1011A00092B23A4402F1005202F5405252001660E7
:1011B0001DB10C2202FB0142556648F6CF72D0F8F1
:1011C00000804FF0100908EA0202026002684FF046
:1011D000010822F4E04222F0400292B218F0200FFF
:1011E00018BF88EA02024FEA4808B9F101091FFA5C
:1011F00088F8F3D142F4004242F080021E440260BB
:101200002683BCF1000F2FD1ADE713F0010F18BFFB
:101210005A1CDEF800E092021FFA8EFEBE44164F02
:1012200077447F003A601DB10C2202FB01418D66BC
:101230004CF68F72016810250A4002600268012195
:1012400022F4804222F0700292B211F4405F18BF83
:101250004A404900013D89B2F7D142F4004242F0D0
:10126000800233440260238303B0BDE8F08300BFF3
:10127000101600080430002006300020505C0040AA
:101280000B0626D4134B10205A54890001F18041DB
:1012900001F5B8410B6823F4804323F070039BB23F
:1012A0004AB1012212F4005F18BF534052000138C6
:1012B00092B2F7D108E0012212F4405F18BF534008
:1012C0005200013892B2F7D143F4004343F0800357
:1012D0000B60704790010020FEE77047002215491F
:1012E00015485318834204D2144BD3585350043238
:1012F000F5E7134A934203D200221A600433F8E759
:10130000104C114B9C4203D254F8043B9847F8E729
:101310000E4C0F4B9C4203D254F8043B9847F8E71D
:10132000FEF74AFF0B4C0C4B9C4203D254F8043B93
:101330009847F8E700000020180000204C1600082D
:10134000980100204C1600084C1600084C160008A6
:101350004C1600084C1600084C160008024B20F0F2
:101360007F401860704700BF14E000E0044A00F0BE
:101370000400136823F0040303431360704700BFA5
:1013800010E000E0024A136843F002031360704764
:1013900010E000E0024A136843F001031360704755
:1013A00010E000E0844641EA000313F0030349D152
:1013B000403A23D30B6803604B6843608B688360BB
:1013C000CB68C3600B6903614B6943618B698361BF
:1013D000CB69C3610B6A03624B6A43628B6A8362A7
:1013E000CB6AC3620B6B03634B6B43638B6B83638F
:1013F000CB6BC36340304031403ADBD230320BD349
:101400000B6803604B6843608B688360CB68C36084
:1014100010301031103AF3D20C3205D351F8043B9E
:1014200040F8043B043AF9D2043208D0D2071CBF7A
:1014300011F8013B00F8013B01D30B8803806046A3
:10144000704700BF082A13D38B07B1D010F00303F5
:10145000AED0C3F10403D21ADB071CBF11F8013B65
:1014600000F8013BA4D331F8023B20F8023B9FE790
:10147000043AD9D3013A11F8013B00F8013BF9D203
:101480000B7803704B7843708B788370604670479D
:1014900020F0030110F00300C0F1000051F8043BFC
:1014A00000F1040C4FEACC0C6FF000021CBF22FAD2
:1014B0000CF213434FF0010C4CEA0C2C4CEA0C4C90
:1014C000A3EB0C0222EA030212EACC1204BF51F889
:1014D000043B0430F4D0C2F1000102EA0102B2FA86
:1014E00082F2C2F11F0200EBD2007047120100022B
:1014F0000000004051C201F0000101020301090295
:101500000000010100C0329815000805010902A180
:10151000010901A1000509190129031500250195FB
:1015200003750181029501750581010501093009E5
:101530003109381581257F750895038106C0093C5E
:1015400005FF09011500250175019502B1227506F7
:101550009501B101C05A68695975616E2057616E75
:1015600000434D5349535F444150003030303141C6
:101570003030303030303000090400000103010207
:1015800000A81500088D15000809000000092100B9
:10159000010001224A0000000000000001000000DC
:1015A00000000000781500080705810304002000F2
:1015B00000000000000000009F080008000000007C
:1015C00000000000000000000000000019090008F1
:1015D000D30900080000000057080008430900086C
:1015E000B708000800000000000000000000000034
:1015F00000000000000000000000000000000000EB
:1016000000000000000000006B08000887090008C7
:101610000002000400000006D5100008090D0008B3
:1016200009110008190D00085D0D0008811200085D
:101630003D0E0008750E0008190F00080110000883
:0C1640000000000000000000000000009E
:10164C0055150008611500086B15000800127A008A
:08165C0000127A0000127A006E
:04000005080012DD00
:00000001FF
